{
  "_format": "hh-sol-artifact-1",
  "contractName": "E_Voting",
  "sourceName": "contracts/E_Voting.sol",
  "abi": [
    {
      "anonymous": false,
      "inputs": [
        {
          "indexed": false,
          "internalType": "address",
          "name": "owner",
          "type": "address"
        },
        {
          "indexed": false,
          "internalType": "string",
          "name": "title",
          "type": "string"
        },
        {
          "indexed": false,
          "internalType": "string",
          "name": "description",
          "type": "string"
        },
        {
          "indexed": false,
          "internalType": "uint256",
          "name": "deadline",
          "type": "uint256"
        },
        {
          "indexed": false,
          "internalType": "string",
          "name": "image",
          "type": "string"
        },
        {
          "components": [
            {
              "internalType": "uint256",
              "name": "id",
              "type": "uint256"
            },
            {
              "internalType": "string",
              "name": "name",
              "type": "string"
            },
            {
              "internalType": "uint256",
              "name": "voteCount",
              "type": "uint256"
            }
          ],
          "indexed": false,
          "internalType": "struct E_Voting.Option[]",
          "name": "options",
          "type": "tuple[]"
        },
        {
          "indexed": false,
          "internalType": "address[]",
          "name": "voters",
          "type": "address[]"
        },
        {
          "indexed": false,
          "internalType": "uint256[]",
          "name": "votes",
          "type": "uint256[]"
        }
      ],
      "name": "Vote",
      "type": "event"
    },
    {
      "inputs": [
        {
          "internalType": "uint256",
          "name": "_id",
          "type": "uint256"
        },
        {
          "internalType": "string",
          "name": "_option",
          "type": "string"
        }
      ],
      "name": "castVote",
      "outputs": [
        {
          "internalType": "uint256[]",
          "name": "",
          "type": "uint256[]"
        }
      ],
      "stateMutability": "nonpayable",
      "type": "function"
    },
    {
      "inputs": [
        {
          "internalType": "address",
          "name": "_owner",
          "type": "address"
        },
        {
          "internalType": "string",
          "name": "_title",
          "type": "string"
        },
        {
          "internalType": "string",
          "name": "_description",
          "type": "string"
        },
        {
          "internalType": "uint256",
          "name": "_deadline",
          "type": "uint256"
        },
        {
          "internalType": "string",
          "name": "_image",
          "type": "string"
        },
        {
          "internalType": "string[]",
          "name": "_options",
          "type": "string[]"
        }
      ],
      "name": "createVote",
      "outputs": [
        {
          "internalType": "uint256",
          "name": "",
          "type": "uint256"
        }
      ],
      "stateMutability": "nonpayable",
      "type": "function"
    },
    {
      "inputs": [],
      "name": "getAllVotes",
      "outputs": [
        {
          "components": [
            {
              "internalType": "address",
              "name": "owner",
              "type": "address"
            },
            {
              "internalType": "string",
              "name": "title",
              "type": "string"
            },
            {
              "internalType": "string",
              "name": "description",
              "type": "string"
            },
            {
              "internalType": "uint256",
              "name": "deadline",
              "type": "uint256"
            },
            {
              "internalType": "string",
              "name": "image",
              "type": "string"
            },
            {
              "components": [
                {
                  "internalType": "uint256",
                  "name": "id",
                  "type": "uint256"
                },
                {
                  "internalType": "string",
                  "name": "name",
                  "type": "string"
                },
                {
                  "internalType": "uint256",
                  "name": "voteCount",
                  "type": "uint256"
                }
              ],
              "internalType": "struct E_Voting.Option[]",
              "name": "options",
              "type": "tuple[]"
            },
            {
              "internalType": "address[]",
              "name": "voters",
              "type": "address[]"
            },
            {
              "internalType": "uint256[]",
              "name": "votes",
              "type": "uint256[]"
            }
          ],
          "internalType": "struct E_Voting.VotingData[]",
          "name": "",
          "type": "tuple[]"
        }
      ],
      "stateMutability": "view",
      "type": "function"
    },
    {
      "inputs": [],
      "name": "getVoteCount",
      "outputs": [
        {
          "internalType": "uint256",
          "name": "",
          "type": "uint256"
        }
      ],
      "stateMutability": "view",
      "type": "function"
    },
    {
      "inputs": [
        {
          "internalType": "uint256",
          "name": "_id",
          "type": "uint256"
        }
      ],
      "name": "getVoters",
      "outputs": [
        {
          "internalType": "address[]",
          "name": "",
          "type": "address[]"
        },
        {
          "internalType": "uint256[]",
          "name": "",
          "type": "uint256[]"
        }
      ],
      "stateMutability": "view",
      "type": "function"
    },
    {
      "inputs": [],
      "name": "numberOfVotes",
      "outputs": [
        {
          "internalType": "uint256",
          "name": "",
          "type": "uint256"
        }
      ],
      "stateMutability": "view",
      "type": "function"
    },
    {
      "inputs": [
        {
          "internalType": "uint256",
          "name": "",
          "type": "uint256"
        }
      ],
      "name": "votings2",
      "outputs": [
        {
          "components": [
            {
              "internalType": "address",
              "name": "owner",
              "type": "address"
            },
            {
              "internalType": "string",
              "name": "title",
              "type": "string"
            },
            {
              "internalType": "string",
              "name": "description",
              "type": "string"
            },
            {
              "internalType": "uint256",
              "name": "deadline",
              "type": "uint256"
            },
            {
              "internalType": "string",
              "name": "image",
              "type": "string"
            },
            {
              "components": [
                {
                  "internalType": "uint256",
                  "name": "id",
                  "type": "uint256"
                },
                {
                  "internalType": "string",
                  "name": "name",
                  "type": "string"
                },
                {
                  "internalType": "uint256",
                  "name": "voteCount",
                  "type": "uint256"
                }
              ],
              "internalType": "struct E_Voting.Option[]",
              "name": "options",
              "type": "tuple[]"
            },
            {
              "internalType": "address[]",
              "name": "voters",
              "type": "address[]"
            },
            {
              "internalType": "uint256[]",
              "name": "votes",
              "type": "uint256[]"
            }
          ],
          "internalType": "struct E_Voting.VotingData",
          "name": "data",
          "type": "tuple"
        }
      ],
      "stateMutability": "view",
      "type": "function"
    }
  ],
  "bytecode": "0x6080604052600060025534801561001557600080fd5b50611721806100256000396000f3fe608060405234801561001057600080fd5b506004361061007d5760003560e01c806386b646f21161005b57806386b646f2146100c6578063d037853a146100e7578063d599f27c14610107578063e7b3387c1461012757600080fd5b80630e7d490d146100825780635f2f403f1461009e578063851b6ef2146100b1575b600080fd5b61008b60025481565b6040519081526020015b60405180910390f35b61008b6100ac36600461110f565b61012f565b6100b96103dd565b60405161009591906113c6565b6100d96100d4366004611428565b61086e565b604051610095929190611441565b6100fa6100f5366004611466565b610970565b60405161009591906114ad565b61011a610115366004611428565b610b3c565b60405161009591906114c7565b60025461008b565b600254600090815260016020526040812082516101935760405162461bcd60e51b815260206004820152601960248201527f496e76616c6964206e756d626572206f66206f7074696f6e730000000000000060448201526064015b60405180910390fd5b4285116101f75760405162461bcd60e51b815260206004820152602c60248201527f54686520646561646c696e652073686f756c642062652061206461746520696e60448201526b103a343290333aba3ab9329760a11b606482015260840161018a565b6000835167ffffffffffffffff81111561021357610213610fb9565b60405190808252806020026020018201604052801561026857816020015b61025560405180606001604052806000815260200160608152602001600081525090565b8152602001906001900390816102315790505b50905060005b84518110156102dc57604051806060016040528082815260200186838151811061029a5761029a6114da565b6020026020010151815260200160008152508282815181106102be576102be6114da565b602002602001018190525080806102d490611506565b91505061026e565b5081546001600160a01b0319166001600160a01b038a161782556001820161030489826115a2565b506002820161031388826115a2565b50600382018690556004820161032986826115a2565b5060005b81518110156103ab578260000160050182828151811061034f5761034f6114da565b602090810291909101810151825460018181018555600094855293839020825160039092020190815591810151909282019061038b90826115a2565b5060408201518160020155505080806103a390611506565b91505061032d565b50600280549060006103bc83611506565b919050555060016002546103d09190611662565b9998505050505050505050565b6060600060025467ffffffffffffffff8111156103fc576103fc610fb9565b60405190808252806020026020018201604052801561047e57816020015b61046b60405180610100016040528060006001600160a01b03168152602001606081526020016060815260200160008152602001606081526020016060815260200160608152602001606081525090565b81526020019060019003908161041a5790505b50905060005b600254811015610868576000818152600160208181526040928390208351610100810190945280546001600160a01b031684529182018054918401916104c99061151f565b80601f01602080910402602001604051908101604052809291908181526020018280546104f59061151f565b80156105425780601f1061051757610100808354040283529160200191610542565b820191906000526020600020905b81548152906001019060200180831161052557829003601f168201915b5050505050815260200160028201805461055b9061151f565b80601f01602080910402602001604051908101604052809291908181526020018280546105879061151f565b80156105d45780601f106105a9576101008083540402835291602001916105d4565b820191906000526020600020905b8154815290600101906020018083116105b757829003601f168201915b50505050508152602001600382015481526020016004820180546105f79061151f565b80601f01602080910402602001604051908101604052809291908181526020018280546106239061151f565b80156106705780601f1061064557610100808354040283529160200191610670565b820191906000526020600020905b81548152906001019060200180831161065357829003601f168201915b5050505050815260200160058201805480602002602001604051908101604052809291908181526020016000905b828210156107765783829060005260206000209060030201604051806060016040529081600082015481526020016001820180546106db9061151f565b80601f01602080910402602001604051908101604052809291908181526020018280546107079061151f565b80156107545780601f1061072957610100808354040283529160200191610754565b820191906000526020600020905b81548152906001019060200180831161073757829003601f168201915b505050505081526020016002820154815250508152602001906001019061069e565b505050508152602001600682018054806020026020016040519081016040528092919081815260200182805480156107d757602002820191906000526020600020905b81546001600160a01b031681526001909101906020018083116107b9575b505050505081526020016007820180548060200260200160405190810160405280929190818152602001828054801561082f57602002820191906000526020600020905b81548152602001906001019080831161081b575b50505050508152505082828151811061084a5761084a6114da565b6020026020010181905250808061086090611506565b915050610484565b50919050565b60608060008381548110610884576108846114da565b9060005260206000209060080201600601600084815481106108a8576108a86114da565b90600052602060002090600802016007018180548060200260200160405190810160405280929190818152602001828054801561090e57602002820191906000526020600020905b81546001600160a01b031681526001909101906020018083116108f0575b505050505091508080548060200260200160405190810160405280929190818152602001828054801561096057602002820191906000526020600020905b81548152602001906001019080831161094c575b5050505050905091509150915091565b60008281526001602090815260408083203380855260088201909352922054606092919060ff16156109d45760405162461bcd60e51b815260206004820152600d60248201526c105b1c9958591e481d9bdd1959609a1b604482015260640161018a565b60006109e08386610ef0565b6001600160a01b03831660009081526008850160205260409020805460ff191660011790556005840180549192509082908110610a1f57610a1f6114da565b600091825260208220600260039092020101805491610a3d83611506565b9091555050600683018054600181810183556000928352602080842090920180546001600160a01b031916331790556007860180549182018155835290822001829055600584015467ffffffffffffffff811115610a9d57610a9d610fb9565b604051908082528060200260200182016040528015610ac6578160200160208202803683370190505b50905060005b6005850154811015610b2f5760058501805482908110610aee57610aee6114da565b906000526020600020906003020160020154828281518110610b1257610b126114da565b602090810291909101015280610b2781611506565b915050610acc565b5093505050505b92915050565b6001602081815260009283526040928390208351610100810190945280546001600160a01b031684529182018054929392849284019190610b7c9061151f565b80601f0160208091040260200160405190810160405280929190818152602001828054610ba89061151f565b8015610bf55780601f10610bca57610100808354040283529160200191610bf5565b820191906000526020600020905b815481529060010190602001808311610bd857829003601f168201915b50505050508152602001600282018054610c0e9061151f565b80601f0160208091040260200160405190810160405280929190818152602001828054610c3a9061151f565b8015610c875780601f10610c5c57610100808354040283529160200191610c87565b820191906000526020600020905b815481529060010190602001808311610c6a57829003601f168201915b5050505050815260200160038201548152602001600482018054610caa9061151f565b80601f0160208091040260200160405190810160405280929190818152602001828054610cd69061151f565b8015610d235780601f10610cf857610100808354040283529160200191610d23565b820191906000526020600020905b815481529060010190602001808311610d0657829003601f168201915b5050505050815260200160058201805480602002602001604051908101604052809291908181526020016000905b82821015610e29578382906000526020600020906003020160405180606001604052908160008201548152602001600182018054610d8e9061151f565b80601f0160208091040260200160405190810160405280929190818152602001828054610dba9061151f565b8015610e075780601f10610ddc57610100808354040283529160200191610e07565b820191906000526020600020905b815481529060010190602001808311610dea57829003601f168201915b5050505050815260200160028201548152505081526020019060010190610d51565b50505050815260200160068201805480602002602001604051908101604052809291908181526020018280548015610e8a57602002820191906000526020600020905b81546001600160a01b03168152600190910190602001808311610e6c575b5050505050815260200160078201805480602002602001604051908101604052809291908181526020018280548015610ee257602002820191906000526020600020905b815481526020019060010190808311610ece575b505050505081525050905081565b6000805b6005840154811015610f61578251602084012060058501805483908110610f1d57610f1d6114da565b9060005260206000209060030201600101604051610f3b9190611675565b604051809103902003610f4f579050610b36565b80610f5981611506565b915050610ef4565b5060405162461bcd60e51b815260206004820152601060248201526f13dc1d1a5bdb881b9bdd08199bdd5b9960821b604482015260640161018a565b80356001600160a01b0381168114610fb457600080fd5b919050565b634e487b7160e01b600052604160045260246000fd5b604051601f8201601f1916810167ffffffffffffffff81118282101715610ff857610ff8610fb9565b604052919050565b600082601f83011261101157600080fd5b813567ffffffffffffffff81111561102b5761102b610fb9565b61103e601f8201601f1916602001610fcf565b81815284602083860101111561105357600080fd5b816020850160208301376000918101602001919091529392505050565b600082601f83011261108157600080fd5b8135602067ffffffffffffffff8083111561109e5761109e610fb9565b8260051b6110ad838201610fcf565b93845285810183019383810190888611156110c757600080fd5b84880192505b85831015611103578235848111156110e55760008081fd5b6110f38a87838c0101611000565b83525091840191908401906110cd565b98975050505050505050565b60008060008060008060c0878903121561112857600080fd5b61113187610f9d565b9550602087013567ffffffffffffffff8082111561114e57600080fd5b61115a8a838b01611000565b9650604089013591508082111561117057600080fd5b61117c8a838b01611000565b955060608901359450608089013591508082111561119957600080fd5b6111a58a838b01611000565b935060a08901359150808211156111bb57600080fd5b506111c889828a01611070565b9150509295509295509295565b6000815180845260005b818110156111fb576020818501810151868301820152016111df565b506000602082860101526020601f19601f83011685010191505092915050565b600082825180855260208086019550808260051b84010181860160005b8481101561128757601f198684030189528151606081518552858201518187870152611266828701826111d5565b60409384015196909301959095525098840198925090830190600101611238565b5090979650505050505050565b600081518084526020808501945080840160005b838110156112cd5781516001600160a01b0316875295820195908201906001016112a8565b509495945050505050565b600081518084526020808501945080840160005b838110156112cd578151875295820195908201906001016112ec565b80516001600160a01b0316825260006101006020830151816020860152611331828601826111d5565b9150506040830151848203604086015261134b82826111d5565b915050606083015160608501526080830151848203608086015261136f82826111d5565b91505060a083015184820360a0860152611389828261121b565b91505060c083015184820360c08601526113a38282611294565b91505060e083015184820360e08601526113bd82826112d8565b95945050505050565b6000602080830181845280855180835260408601915060408160051b870101925083870160005b8281101561141b57603f19888603018452611409858351611308565b945092850192908501906001016113ed565b5092979650505050505050565b60006020828403121561143a57600080fd5b5035919050565b6040815260006114546040830185611294565b82810360208401526113bd81856112d8565b6000806040838503121561147957600080fd5b82359150602083013567ffffffffffffffff81111561149757600080fd5b6114a385828601611000565b9150509250929050565b6020815260006114c060208301846112d8565b9392505050565b6020815260006114c06020830184611308565b634e487b7160e01b600052603260045260246000fd5b634e487b7160e01b600052601160045260246000fd5b600060018201611518576115186114f0565b5060010190565b600181811c9082168061153357607f821691505b60208210810361086857634e487b7160e01b600052602260045260246000fd5b601f82111561159d57600081815260208120601f850160051c8101602086101561157a5750805b601f850160051c820191505b8181101561159957828155600101611586565b5050505b505050565b815167ffffffffffffffff8111156115bc576115bc610fb9565b6115d0816115ca845461151f565b84611553565b602080601f83116001811461160557600084156115ed5750858301515b600019600386901b1c1916600185901b178555611599565b600085815260208120601f198616915b8281101561163457888601518255948401946001909101908401611615565b50858210156116525787850151600019600388901b60f8161c191681555b5050505050600190811b01905550565b81810381811115610b3657610b366114f0565b60008083546116838161151f565b6001828116801561169b57600181146116b0576116df565b60ff19841687528215158302870194506116df565b8760005260208060002060005b858110156116d65781548a8201529084019082016116bd565b50505082870194505b5092969550505050505056fea2646970667358221220780403010535650727971b3e51c87345c6489db9c271c460d2048aa000a5dde564736f6c63430008130033",
  "linkReferences": {},
  "deployedLinkReferences": {}
}